:100000000C942A000C943F000C943F000C943F0089
:100010000C943F000C943F000C943F000C943F0064
:100020000C943F000C943F000C943F000C943F0054
:100030000C943F000C943F000C943F000C943F0044
:100040000C943F000C943F000C943F000C943F0034
:100050000C943F0011241FBECFE5D8E0DEBFCDBF1A
:1000600010E0A0E6B0E0EAE1F6E002C005900D92F3
:10007000AA38B107D9F70E9453020C940B030C94D1
:100080000000613009F03FC0883060F44BB321E0DC
:1000900030E0B90102C0660F771F8A95E2F7CB0105
:1000A000842B41C098EF980F983060F448B321E05A
:1000B00030E0B90102C0660F771F9A95E2F7CB01D5
:1000C000842B43C090EF980F983060F445B321E043
:1000D00030E0B90102C0660F771F9A95E2F7CB01B5
:1000E000842B45C098EE980F983008F053C042B367
:1000F00021E030E0B90102C0660F771F9A95E2F760
:10010000CB01842B46C0611145C0883070F44BB3DD
:1001100021E030E0B90102C0660F771F8A95E2F74F
:10012000CB01809584238BBB089598EF980F98306E
:1001300070F448B321E030E0B90102C0660F771FC8
:100140009A95E2F7CB018095842388BB089590EFC0
:10015000980F983070F445B321E030E0B90102C047
:10016000660F771F9A95E2F7CB018095842385BBB4
:10017000089598EE980F983068F442B321E030E08B
:10018000B90102C0660F771F9A95E2F7CB018095FF
:10019000842382BB0895482F883020F499B3892F97
:1001A00090E014C088EF840F883010F426B30BC0A1
:1001B00080EF840F883010F423B305C088EE840FDD
:1001C000883058F420B330E0482FC90102C095951B
:1001D00087954A95E2F78170089580E00895EF923F
:1001E000FF921F93CF93DF93CAE6D0E020EF3FEF5B
:1001F00048EF5FEFA8EEBFEF60E070E081E090E0D5
:10020000F991F13009F441C020F0F23009F47EC0D8
:10021000BFC0683078F41AB37C01062E02C0EE0C21
:10022000FF1C0A94E2F7F701F12FFE2BFABBFBB398
:10023000E0953BC0483068F417B3FC01042E01C0C0
:10024000EE0F0A94EAF7F12FFE2BF7BBF8B3E09517
:100250003CC0283068F414B3FC01022E01C0EE0F3C
:100260000A94EAF7F12FFE2BF4BBF5B3E0953DC0FD
:1002700011B3FC010A2E01C0EE0F0A94EAF7F12F28
:10028000FE2BF1BBF2B3E0953FC0683080F41AB3A7
:100290007C01062E02C0EE0CFF1C0A94E2F7F70167
:1002A000E095F12FFE23FABBFBB3EF2340C04830AB
:1002B00070F417B3FC01042E01C0EE0F0A94EAF7A4
:1002C000E095F12FFE23F7BBF8B3EF2341C02830B0
:1002D00078F414B3FC01022E01C0EE0F0A94EAF781
:1002E000E095F12FFE23F4BBF5B3EF23E5BB50C03F
:1002F00011B3FC010A2E01C0EE0F0A94EAF7E09553
:10030000F12FFE23F1BBF2B3EF2341C0683088F434
:100310001AB37C01062E02C0EE0CFF1C0A94E2F711
:10032000F701FE2DF095F123FABBFBB3EF2BEBBBEE
:100330002FC0483078F417B3FC01042E01C0EE0F33
:100340000A94EAF7FE2FF095F123F7BBF8B3EF2BF1
:10035000E8BB1EC0283070F414B3FC01022E01C0AB
:10036000EE0F0A94EAF7FE2FF095F123F4BBF5B3F4
:10037000EF2BBCCF11B3FC010A2E01C0EE0F0A9483
:10038000EAF7FE2FF095F123F1BBF2B3EF2BE2BBBE
:100390006F5F7F4F11964F5F5F4F2F5F3F4F603210
:1003A000710509F02DCFDF91CF911F91FF90EF9054
:1003B0000895CF93DF93CDB7DEB72A970FB6F894A1
:1003C000DEBF0FBECDBF9AE0E0E6F0E0DE011196A1
:1003D00001900D929A95E1F7AE9A6AE00E94FF02B1
:1003E000E1E0F0E0EC0FFD1FE90FF11D9081990FA6
:1003F0009BBBAF98EFE0F7E23197F1F700C0000048
:10040000AF9AE1E0F0E0EC0FFD1FE80FF11D8081F5
:10041000880F8BBBAE988FE097E20197F1F700C091
:1004200000002A960FB6F894DEBF0FBECDBFDF9155
:10043000CF910895CF93DF93C5E061E085E10E94FD
:10044000410061E082E10E94410061E081E10E949F
:10045000410061E080E10E944100D4E680E00E941A
:10046000D901D150D9F760E085E10E94410060E0F8
:1004700082E10E94410060E081E10E94410060E071
:1004800080E10E94410084E6AE98AF98EFE1FEE47F
:100490003197F1F700C000008150B1F7C15069F603
:1004A000DF91CF9108950E94EF00DEE1CEE18AE076
:1004B000F82E96EFE92E8AE10E94CB00811122C02E
:1004C0008AE10E94CB00811105C08D2F0E94D901C5
:1004D000F7CFD1501AE501E08D2F0E94D9018AE1B2
:1004E0000E94CB00811101C000E01150A9F7002348
:1004F00021F0D111EECF0E941A028AE10E94CB00B6
:100500008823D9F38BE10E94CB00882311F010E0FF
:1005100028C0D4E68C2F0E94D901D150D9F78BE1A5
:100520000E94CB008823D9F3DC2FF1CF8AE10E940F
:10053000CB00882371F18BE10E94CB00882309F462
:100540003DC08C2F0E94D901CD2F8AE0189FC00D8D
:1005500011248CE10E94CB00882309F43EC011E0F5
:10056000DC2F8CE10E94CB00811142C08C2F6F2DBB
:100570000E94FF02082F182FDC2F8E9DD00D112412
:100580008CE10E94CB008111D1CF8C2F0E94D90128
:10059000F7CF8AE10E94CB00811104C08C2F0E940A
:1005A000D901F7CF093019F011E0100F01C010E0A8
:1005B000CD2F8AE0189FC00D1124BDCF8BE10E9482
:1005C000CB00811104C08C2F0E94D901F7CFD93004
:1005D00011F0DF5FB6CFD0E0B4CF8CE10E94CB004A
:1005E000811104C08C2F0E94D901F7CF10E0B8CF41
:1005F000113009F4BBCF8D2F0E94D9015CCF991B1C
:1006000079E004C0991F961708F0961B881F7A9509
:0A061000C9F780950895F894FFCF14
:10061A003F065B4F666D7D077F6F0000000000009C
:10062A0000000002010002010002000000000000B8
:0A063A0000000002020202010002AB
:00000001FF
